:400000000080002011000000F1080000F108000008B5044B1A6803F53F5302331A6000F069FC00BFFA46004010B5054C237833B9044B13B10448AFF300800123237010BD20
:400040002881FF1F0000000038210000084B10B51BB108480849AFF300800848036803B910BD074B002BFBD0BDE81040184700BF00000000382100002C81FF1F0881FF1F4F
:400080000000000008B501F0B7FD01F0EBFD002001F0CEFF642001F095F808BD10B51A4B1C780A229A71194928230B70184B18780122002300F0A4FF002300E0013342F20C
:4000C0000F729342FADD124B18780F490622002300F0FCFF002300E0013342F20F729342FADD04F508540120002101F0DDF9204601F0F8F9222001F051FF0A2001F04EFF2F
:40010000642001F05FF810BD6881FF1F8081FF1F0C81FF1F08B5002300E0013342F20F729342FADD114928230B70114B58780122002300F065FF002300E0013342F20F722E
:400140009342FADD0A4B58780A490622002300F0BDFF002300E0013342F20F729342FADD0448062101F026FF08BD00BF8081FF1F0C81FF1F6881FF1F08B50020012101F0FE
:4001800093F90C4801F024F90020062101F08CF9094801F01DF900200C2101F085F9074801F016F90120002101F07EF9044801F00FF908BD3C210000442100004C2100004E
:4001C00054210000F8B5394B5F8801F015FD01F049FD0546002800DA0730344B5B88A3EBE0000028B8BF40420A285EDD012001F001F90024264612E001F0FEFC01F032FDBD
:400200000546041B002CB8BF6442132C06DCB04200DD0646B84201DA00B107460446234B5B88DA1EAA42E7DCDA1CAA42E4DB9A1CB2420BDAF31A642606FB03F31C4C84FB15
:400240000324DB17C3EB640401250AE0DB1B642404FB03F3164C84FB0324DB17C3EB64040025022000F0C4FF0020012101F01CF9104801F0ADF80020082101F015F9A0B2F2
:4002800001F030F93DB90120002101F00DF90A4801F09EF806E00120002101F005F9074801F096F8642000F0A3FFF8BD0C81FF1F6B4CA407642100006C2100007C210000B0
:4002C00038B505460C460E4B1B88A3F10F02914202DB0F3399420FDD631E9BB2302B04D904F119039BB2172B06D80120052101F0DBF8044801F06CF8014B1C805D8038BD30
:400300004481FF1F882100002DE9F843234B1E7893F801909D7893F803801C795F79002300E0013342F20F729342FADD1C4928230B701C4B58780122002300F061FE00237E
:4003400000E0013342F20F729342FADD154B587812490622002300F0B9FE002300E0013342F20F729342FADD06EB0926B6B205EB0825ADB204EB0724A4B2012001F03AF83B
:40038000094801F025F8304629462246FFF798FF642000F017FFBDE8F88300BF6881FF1F8081FF1F0C81FF1F9021000008B5FFF7ABFF08BD08B5044B1878044902220023C7
:4003C00000F01EFE08BD00BF0C81FF1F7481FF1F10B5094C2323237004236370FFF7EAFF4FF4967000F004FF202323703F236370FFF7E0FF10BD00BF7481FF1F08B5044B1C
:40040000587804490622002300F0FAFD08BD00BF0C81FF1F7481FF1F08B5074B20221A70DC225A7060229A700021D970082119715A71FFF7E3FF08BD7481FF1F10B500247B
:4004400007E00120E1B201F02FF8202000F0CEFF01340F2CF5DD10BD08B50020014601F023F8024800F0B4FF08BD00BFA021000008B5012000F0BEFF0020014601F014F86C
:40048000014800F0A5FF08BDB421000008B5012000F0B0FF0020014601F006F8014800F097FF08BDC821000008B5012000F0A2FF0020014600F0F8FF014800F089FF08BD32
:4004C000D821000038B50546002480E0012001F039F8002001F042F8002001F04BF8002001F054F84FF4FA6000F082FE012001F029F8012001F032F8002001F03BF8002028
:4005000001F044F84FF4FA6000F072FE002001F019F8012001F022F8002001F02BF8002001F034F84FF4FA6000F062FE002001F009F8012001F012F8012001F01BF8002072
:4005400001F024F84FF4FA6000F052FE002000F0F9FF002001F002F8012001F00BF8002001F014F84FF4FA6000F042FE002000F0E9FF002000F0F2FF012000F0FBFF01205A
:4005800001F004F84FF4FA6000F032FE002000F0D9FF002000F0E2FF002000F0EBFF012000F0F4FF4FF4FA6000F022FE012000F0C9FF002000F0D2FF002000F0DBFF012048
:4005C00000F0E4FF4FF4FA6000F012FE0134AC42FFF67CAF38BD00BF38B50546002480E0012000F0D3FF002000F0C4FF002000F0B5FF002000F0A6FF4FF4FA6000F0F8FD27
:40060000012000F0C3FF012000F0B4FF002000F0A5FF002000F096FF4FF4FA6000F0E8FD002000F0B3FF012000F0A4FF002000F095FF002000F086FF4FF4FA6000F0D8FD47
:40064000002000F0A3FF012000F094FF012000F085FF002000F076FF4FF4FA6000F0C8FD002000F093FF002000F084FF012000F075FF002000F066FF4FF4FA6000F0B8FD47
:40068000002000F083FF002000F074FF012000F065FF012000F056FF4FF4FA6000F0A8FD002000F073FF002000F064FF002000F055FF012000F046FF4FF4FA6000F098FD47
:4006C000012000F063FF002000F054FF002000F045FF012000F036FF4FF4FA6000F088FD0134AC42FFF67CAF38BD00BF10B52A4B5B68A3F18202824203DC03F1820282428D
:4007000048DA044683421FDAC31A47F6FE7293420CDC03EB03235B001846002B02DA03F57F40FF300014FFF7CDFE0DE0C3F5803303EB03235B001846002B02DA03F57F40D6
:40074000FF300014FFF748FF134B5B689C421FDA1B1B47F6FE7293420CDC03EB03235B001846002B02DA03F57F40FF300014FFF733FF0DE0C3F5803303EB03235B00184646
:40078000002B02DA03F57F40FF300014FFF79AFE014B5C6010BD00BF4481FF1F2DE9F843274B1C7893F801909E7893F803801D795F79244928230B70234B187801220023B7
:4007C00000F01EFC002300E0013342F20F729342FADD1D4B18781A490622002300F076FC002300E0013342F20F729342FADD04EB0924A4B206EB0826B6B205EB0725ADB243
:400800000120002100F050FE204600F06BFE0120062100F049FE304600F064FE01200B2100F042FE284600F05DFE642000F0CAFCFFF704FE2046FFF759FFBDE8F88300BF37
:400840006881FF1F8081FF1F0C81FF1F10B562B600F05CFA01F048FA01F0B2F901F0C4F900F014FE01F08CFB01F01AFCFFF7B0FD4FF47A7000F0A6FCFFF7CEFD002400E05F
:400880000024062C21D8DFE804F004070C0F12171B00FFF771FC1AE0FFF7DEFDFFF77EFF15E0FFF783FD12E0FFF78CFC0FE0FFF7EDFDFFF7F3FB0AE0FFF7F6FDFFF72AFCA6
:4008C000FFF7D6FDFFF7DEFB01E0FFF755FC01F021FB0028D5D14FF47A7000F073FC0134024B9B88A342CBDBCBE700BF0C81FF1FFEE700BF08B5104E104D16E029686B680F
:40090000AC68002204E051F8040B43F8040B0432A242F8D1E868002203E0002143F8041B04328242F9D11035013E002EE6D101F0C9FBFFF78BFFFEE701000000542200008A
:4009400008B5124A124B1A60124A136843F40073136000230AE0032B03D80F4A52F8231000E00E490E4A42F8231001332F2BF2D90C4B1A780C4B1A70094A0C4B1A6000F074
:40098000E1F800220A4B1A6008BD00BF0004FA050CED00E014ED00E000000000F10800000080FF1FBC7600400481FF1F08ED00E00081FF1FFEE700BFF0B40022174611E054
:4009C00050F82760F3B226F0FF0608E001EB420511F812406D78A5550132013BDBB2002BF4D10137132FEBD9F0BC70470F4B1B78DBB203F007010E4A11701B09013213705E
:400A000049220C4B1A70102203F65B131A704023094A1370033213704FF482713F321180163213704422054B1A707047CF0100496E5800403D510040005B004076580040C6
:400A400008B50A46002101F06EFB08BD08B501F05FFB08BD38B500242F4B1C80502202331A704FF49C7202331A80182202331A702A482B490422FFF7E9FF0222294B1A70DF
:400A800008224FF040231A70032103F500731970254B1B78DBB225490B70254B1A8041F25122023B1A8019250CE0224B1B7803F0010343EA440404F003044FF4F07000F0A4
:400AC0006FFB013D0DB1032CEFD115B90320FFF771FF194B4FF480721A8007221A70002216490A704820023108701A700222033B1A7004220A331A70114A137843F00303D4
:400B00001370013A137843F001031370013A137843F08003137038BD8040004000410040C00300480043004008010049A146004022420040254200400440004006400040E1
:400B4000A243004070B572B6394A137843F00403137000240CE0374963001A1952000A4423445B00C8589188FFF76AFF0134E4B2092CF0D900240BE02E49A3001A195200A1
:400B80000A44D06B116C8022FFF760FF0134E4B2002CF1D04FF090402749FFF70DFF0A24264B1C70264A137843F0020313701032137843F002031370224D2B7843F040030E
:400BC0002B70A2F58632513A137843F0100313701D481E490822FFF739FF1D481D492246FFF734FF1C481D490822FFF72FFF1C481C492246FFF72AFF1B481C492246FFF71E
:400C000025FF1B4A137843F008031370194E01243470FFF71FFF81233370174B1C70FFF7E5FE164829460E22FFF710FF70BD00BFE8460040E8210000500000488358004075
:400C400003500140A0430040025100408C030048C05100409403004822510040A003004830510040A803004860510040B4030048224300400048004004000840B043004035
:400C800038B50222114B1A7081220E3B1A70082202331A700F2511331D70002401331C704FF400420A4B1A602846072100F0BEFA2846084900F0A6FA1022074B1A70074BB4
:400CC0001C70074B1C70074B1C7038BDD649004080E100E0350D00008A81FF1F8E81FF1F9681FF1F8C81FF1F08B500F061FA064A137843F0040313701032137843F0040378
:400D0000137000F059FA08BDA543004008B5074B1B7823B9FFF7B4FF0122044B1A70FFF7E3FF4FF40042024B1A6008BD4C81FF1F00E100E038B5A44B1C78E4B2A34B1B78C1
:400D400013F0400F00F0378114F0010F00F01B819E4B1B78453B052B00F21281DFE813F006008200100110010600DE0004F0DF0504F00A04082C42D1944B1B78DBB2452B40
:400D800035D1934B1B7813F0FF0F10D0914B1B681B78DBB2904A137004228B4B1A7001228E4B1A704622894B1A702C46EBE08C4B1B7813F0020F0DD08A4A137843F00A03E6
:400DC00013706022814B1A704FF40042864B1A602C46D8E0854A137843F0100313701022834B1A700422023B1A702C46CBE00022754B1A704A22754B1A702C46C3E00A2C7A
:400E00002BD1784A137843F0A0031370744B1B7813F0020F14D06D4B1B7813F0080F01D0092300E00A236F4A11780B4313706022664B1A704FF400426B4B1A602C46A2E0DE
:400E40006A4A137843F0100313701022684B1A700422023B1A702C4695E0002000F0B0F92C4690E014F0020F35D15C4B1B78584A1278DBB2934210D2584A1378DBB255496F
:400E80000968CB5CDBB254490B7004214E4B197013780133DBB2137075E0514B1B7813F0020F0CD04F4A137843F00A0313706022464B1A704FF400424B4B1A6063E04B4A7A
:400EC000137843F0100313701022494B1A700422023B1A7057E0424B1B7813F0020F0CD0404A137843F09A0313706022374B1A704FF400423C4B1A6045E03C4A137843F035
:400F00001003137010223A4B1A700422023B1A70344A137843F09003137034E0354A1378DBB2354908682C490978C9B2C15413780133DBB213701378304A1278DBB29342BC
:400F400003D21022204B1A701DE0254B1B7813F0020F0CD0234A137843F00903137060221A4B1A704FF400421F4B1A600BE01F4A137843F0100313700022134B1A7002E05D
:400F8000002000F01DF914F0200F1CD00F4B1B7813F0080F01D0012300E00223114A11780B431370114A137803F0EF0313701022064B1A7038BD054B1B7813F0100F02D10E
:400FC0001022024B1A7038BDD74900408A81FF1F8D81FF1F9881FF1FD84900408C81FF1F9481FF1F8E81FF1F80E100E0D6490040D94900409681FF1F9081FF1F9581FF1F81
:40100000002948D070B40C4626490978C9B2102906D12549097811F0080F11D1002112E020490978C9B260290CD14FF400451F490D601F4D297801F0F7012970002102E0C8
:40104000012100E0022149BB4526164D2E700026184D2E70184D2A70184A1460184A1370134C227802F0FD0222704200D2B21548027013F0010F06D012220B4B1A700422C4
:40108000023B1A7002E00122074B1A704FF400420D4B1A6002E0022108467047084670BC704700BF8A81FF1FD949004080E200E08E81FF1F8C81FF1F8D81FF1F9881FF1FAF
:4010C0009481FF1FD849004000E100E000294AD070B40C4627490978C9B2102906D12649097811F0080F11D1002112E021490978C9B260290CD14FF4004520490D60204DD2
:40110000297801F0F7012970002102E0012100E0022159BB4926174D2E700026194D2E70194D2A70194A1460194A1370144C227802F0FE0222704200D2B242F00102154822
:40114000027013F0010F06D012220B4B1A700422023B1A7002E00122074B1A704FF400420D4B1A6002E0022108467047084670BC704700BF8A81FF1FD949004080E200E014
:401180008E81FF1F9681FF1F9581FF1F9081FF1F9481FF1FD849004000E100E0000000000230800803D000BF01380046FCD17047EFF3108072B6704780F31088704700BFF4
:4011C00001BE704710B5044605E0084B1868FFF7E7FFA4F50044B4F5004FF6D8034B586800FB04F0FFF7DCFF10BD00BF1481FF1F08B5034B1B7A03FB00F0FFF7D1FF08BD0D
:401200001481FF1F70B504460E46074B1D681F2802D90020FFF7D4FF04F01F04103455F8240045F8246070BD08ED00E038B504460D46072902D90020FFF7C2FF1F2C02D935
:401240000020FFF7BDFF04F01F0000F1604000F564406D01EDB2057038BD00BF10B50B4C237803F09F032370237803F0F00323702378184340F0100020700120FFF7B8FFA2
:40128000237803F0EF03237010BD00BF2051004038B505460E4C237843F020032370237803F0BF0323700020FFF7A2FF237803F0F003237023781D4345F01005257001201F
:4012C000FFF796FF237803F0EF03237038BD00BF2051004070B5354B1A7802F08002D2B21A7033490A7802F0F00242F00F020A7001310A7802F0F0020A7001310A7802F0DB
:40130000F0020A701A7802F0DF021A701A7842F040021A704FF4CA760020FFF769FF234D2B7843F010032B700120FFF761FF214B1C78E4B22B7803F0EF032B700020FFF787
:4013400057FF04F00804E4B22B7843F010032B700120FFF74DFF2B7803F0EF032B7014B90A20FFF745FF013E0CB1002ED4D10F4A137803F0BF031370137803F08003DBB2CD
:4013800013700232137803F0F00313700132137803F0F00343F00F0313700132137803F0F00343F00F03137070BD00BF20510040225100402151004010B50446FFF78AFF1A
:4013C0002009FFF765FF04F00F00FFF761FF10BD38B505460078012404E0FFF7EDFF285D0134E4B20028F8D138BD00BF08B5FFF7E3FF08BD10B50446FFF76CFF2009FFF7CB
:401400002DFF04F00F00FFF729FF10BD08B52820FFF7D8FE0320FFF721FF0520FFF7D2FE0320FFF71BFF0F20FFF7CCFE0320FFF715FF0120FFF7C6FE0220FFF70FFF052028
:40144000FFF7C0FE0620FFF7D5FF0E20FFF7D2FF2C20FFF7CFFF0820FFF7CCFF0120FFF7C9FF0C20FFF7C6FF0320FFF7C3FF0520FFF7A8FE08BD00BF08B50C20FFF7BAFF5C
:401480000122014B1A7008BD4D81FF1F08B5054B5B7823B9FFF7BAFF0122024B5A70FFF7EBFF08BD4D81FF1F08B5032819D8DFE800F002070D1381F08000FFF79BFF08BD4D
:4014C000A1F14000C0B2FFF795FF08BDA1F16C00C0B2FFF78FFF08BDA1F12C00C0B2FFF789FF08BD00B585B000238DF80E30092210E0134BA3FB0013DB08194603EB83037D
:401500005B00C31A303304A8104400F80C3C0846013AD2B20928ECD8094BA3FB0013DB0803EB83035B00C31A303304A9114401F80C3C01AB9818FFF74BFF05B05DF804FBEF
:40154000CDCCCCCC044A137803F0FD03400000F0020018431070704700510040044A137803F0FB03800000F0040018431070704700510040044A137803F0F703C00000F042
:40158000080018431070704700510040044A137803F0EF03000100F010001843107070470051004038B59DF81040651EEDB2032D4AD80138092826D8DFE800F00525250565
:4015C00025250D15251D0F2B02D9214800781BE02048007818E00F2B02D91F48007813E01E48007810E00F2B02D91D4800780BE01C48007808E00F2B02D91B48007803E04B
:401600001A48007800E0002040B201EB401101FB02F2D20B91B20D2B0BD8C3F10E0192B20A4191B2124A02EB8402013302F8023C05E00F4B03EB84030F2203F8022C013C5B
:401640000B4B23F8241038BD0020FFF7B9FD38BD180100491C010049190100491D0100491A0100491E0100491B0100491F0100495081FF1FF8B50746FFF79AFD06460D4DC7
:401680002B7843F003032B700B4C237843F0030323700A4B1F700320FFF7AAFD2B7803F0FC032B70237803F0FC0323703046FFF783FDF8BDF8460040F94600409258004039
:4016C000F8B504460022BA4B1A74012858D17822B84B1A70002502331D700A2701331F707F23B54A13700132157001321370B34B1D7001331D7001331D7001260A331E7059
:40170000502203F527631A70132201331A702B2201331A7001331D70442003331870482201331A700223A64A1370023213701222A44B1A70282201331A70EB2201331A7053
:40174000FFF798FF5822A04B1A7001331D70052205331A7001331E7001331D7001331F704FF47A32994B1A603046314600F0E2FA0720314600F062FB1D209549FFF742FDBC
:40178000022C5AD138228B4B1A70042202331A70072201331A70002501331D7001331D703F2201331A7002331D7001331D7001331D7001260A331E70502203F527631A70D0
:4017C000272201331A702C2201331A7001331D70552203331A705A2201331A70052701331F7002331E70112201331A70192201331A70972201331A704420FFF73BFF582283
:40180000714B1A7001331D7005331F7001331E7001331D700A2201331A704FF4FA426B4B1A600820314600F085FA2520314600F005FB1D206749FFF7E5FC032C5AD138228C
:401840005C4B1A70042202331A70072201331A70002501331D7001331D703F2201331A7002331D7001331D7001331D7001260A331E70502203F527631A70272201331A70EA
:401880002C2201331A7001331D70552203331A705A2201331A70052701331F7002331E70112201331A70192201331A70972201331A704420FFF7DEFE5822434B1A700133DB
:4018C0001D7005331F7001331E7001331D700A2201331A704FF4FA423C4B1A600820314600F028FA2520314600F0A8FA1D203A49FFF788FC042C5AD138222E4B1A70042290
:4019000002331A70072201331A70002401331C7001331C703F2201331A7002331C7001331C7001331C7001250A331D70502203F527631A70272201331A702C2201331A707C
:4019400001331C70552203331A705A2201331A70052601331E7002331D70112201331A70192201331A70972201331A704420FFF781FE5822144B1A7001331C7005331E7064
:4019800001331D7001331C700A2201331A704FF4FA420E4B1A600820294600F0CBF92520294600F04BFA1D200C49FFF72BFCF8BD5081FF1F004E0040044E0040084E00402D
:4019C0008C5800408F58004094580040A081FF1F891C00008D1C0000911C0000951C00002DE9F04182B0384E4FF0010886F80080364F00247C74102000F08AF9102000F0E4
:401A00000BFA1D200721FFF711FC0425304B1D7001331C7007331C702E4A137843F0180313702D4B1C7003F2F5231C7001331C700A22A3F209331A7001331C7002331C7049
:401A40005B2205331A705E2201331A7004331C701423224A1370CDF80080052049F25B114FF40042FFF79EFD02230093284649F2DA014FF400421023FFF794FD03230093A5
:401A8000284649F2DA014FF400421023FFF78AFD0095284649F2DA014FF400421023FFF781FD337807EB830313F8022C0C4B1A703378013B37F823200A4B1A803078FFF705
:401AC000FFFD02B0BDE8F0812481FF1F5081FF1F96580040075B004093580040014E00400E4E00400C4E004070B5FFF761FB06462A4B1B782A4B1A7842F001021A701A788D
:401B000042F010021A7010331A7842F001021A701A7842F010021A70224D2B7843F002032B70214C237843F0020323701F4A137843F0030313700320FFF75AFB2B7803F077
:401B4000FD032B70237803F0FD032370184A137843F0060313707A22164B1A70164A137843F0010313701032137843F0010313700F3A137843F0010313701032137843F0BC
:401B8000010313704FF000530C4A1360A2F5C07213603046FFF710FB70BD00BF2481FF1FAA430040F8460040F9460040915800407758004082580040A143004080E200E0FF
:401BC00008B5084B9B7C4BB9064BDB7C13F0FF0F01D1FFF705FF0122024B9A74FFF784FF08BD00BF5081FF1F024A137843F0010313707047004E0040154B1B7803F0030309
:401C0000012B07D8134B1888023B1B889BB243EA004013E0022B0AD10E4B1888023B1B7843EA00430C4A107843EA002006E00B4B188883B2074A108843EA0040084B1B7C51
:401C400013F0FF0F02D00022054B5A74704700BF144E0040124E0040114E0040104E00405081FF1F064B1B68C01A4FF47A7303FB00F0044B1B6890FBF3F000B2704700BF29
:401C80009C81FF1FA081FF1F704700BF704700BF704700BF704700BF084A137843F060031370A2F5A652133A137843F0020313701032137843F0020313707047775800406C
:401CC000054B1A7802F0FC021A701A7800F0030010431870704700BF5A58004008B50120FFF7EEFF08BD00BF08B5054B1B7823B90122034B1A70FFF7F1FFFFF7CDFF08BD97
:401D00006481FF1F014B188880B2704780400040034B1A7800F0F80010431870704700BF82400040024B187800F00700704700BF8240004070B505460E46FFF7F3FF04466E
:401D4000FFF7E0FF854256D02B4B1B7803F0010294B900B185B938B9284B1D80284A137803F0BF03137070BD254A137843F040031370224B1D8070BD22B3002321490B70FC
:401D800001240F310C7004310B700C390B7803F07F030B701A4B1B7813F0080F00D08DB9194B18800721013B1970164B1B7813F0010FFAD110490B7803F0FE030B7000218B
:401DC000104B19700C4B1B7813F0010F0DD00E4B1D800EB1032200E001220A4B1A70094B1B7813F0010FFAD170BD044B1D8002490B7813430B7070BDA2430040804000409A
:401E0000824000400140004002400040014B188880B2704700410040034B1A7800F0F80010431870704700BF02410040024B187800F00700704700BF0241004070B505466E
:401E40000E46FFF7F3FF0446FFF7E0FF854256D02B4B1B7803F0010294B900B185B938B9284B1D80284A137803F0BF03137070BD254A137843F040031370224B1D8070BD52
:401E800022B3002321490B70012413310C7004390B7008390B7803F07F030B701A4B1B7813F0080F00D08DB9194B18800721013B1970164B1B7813F0010FFAD110490B7835
:401EC00003F0FE030B700021104B19700C4B1B7813F0010F0DD00E4B1D800EB1032200E001220A4B1A70094B1B7813F0010FFAD170BD044B1D8002490B7813430B7070BD2E
:401F0000A143004000410040024100400140004002400040024B1878C0F34000704700BF615100407222074B1A702022013B1A700622623B1A70472210331A70002251339B
:401F40001A7070478765004010B5FFF731F904460A4A137843F020031370013A137843F010031370013A137843F01003137000F035F82046FFF720F910BD00BF9765004095
:401F800008B5054B1B7823B9FFF7CCFF0122024B1A70FFF7D9FF08BD6581FF1F034B1B7813F0040FFAD1024B187070476565004045650040084B1B7833B97047305DFFF705
:401FC000EDFF0134E4B203E070B50D4606460024AC42F3D370BD00BF6581FF1F054A137843F0020313701032137843F002031370704700BFA2430040054A137843F00803EB
:4020000013701032137843F008031370704700BFA8430040054B1A7802F0FD021A701A7800F0020010431870704700BF2C580040014B1870704700BF835B0040064B1B78AC
:40204000C3F3810303F19243063393F83831DBB2024A1370704700BF2C5800400B46004008B5064B1A7802F0F3021A701A7800F00C0010431870FFF7E1FF08BD2C58004030
:4020800010B50024054B1C7001331C700420FFF7E7FF2046FFF7BEFF10BD00BF2C58004008B5074B1B7823B9FFF7EAFF0122044B1A70FFF7A1FF6420FFF7BAFF08BD00BF8C
:4020C0006781FF1F0E4B70B51E460E4C0025E41AA410A54204D056F8253098470135F8E700F0A6F8084B094C1E46E41AA4100025A54204D056F8253098470135F8E770BD85
:402100003C2200003C2200003C2200004422000010B5431E0A44914204D011F8014B03F8014FF8E710BD03460244934202D003F8011BFAE77047000000000000312E4143F0
:4021400043000000322E4D4147000000332E475900000000535732204348414E4745204D4F444500414E474C45000000414E54492D434C4F434B574953450000434C4F437A
:402180004B574953450000004E4F525448000000444952454354494F4E2054455354000058202020202059202020205A20202020000000004F7363696C6C6F73636F706576
:4021C0002D4779726F0000004D41544C4142202D2D204143432020004D41544C4142202D2D204D4147202000C84900401900105100401000405100402000F05100401000C2
:4022000000000140001000140140800200170140000500400140000A004C01400002005001402000801601400C03004880000000F8B500BFF8BC08BC9E4670474D000000D4
:4022400041090000F8B500BFF8BC08BC9E46704729000000682200000881FF1F200000008000000000000000000000001D1E5B0506003E580000E02EC05D00001800000021
:4022800000366E0101000000000000000000000000000000000000000000000000000000000000000000000000000000000000000000000000000000000000000000000078
:4022C00000000000000000000000000000000000000000000000000000000000000000000000000000000000000000000000000000000000000000000000000000000000DE
:40230000000000000000000000000000000000000000000000000000000000000000000000000000000000000000000000000000000000000000000000000000000000009D
:40234000000000000000000000000000000000000000000000000000000000000000000000000000000000000000000000000000000000000000000000000000000000005D
:40238000000000000000000000000000000000000000000000000000000000000000000000000000000000000000000000000000000000000000000000000000000000001D
:020000040003F7
:0200000480007A
:4000000005520040036500407114014049150140181601403E17014001190140051B0140024201400143014002440140014501400346014002470140054801401649014001
:400040000A4C01400C4D01400250014001510140040119201C8060026403850F863887720020010202030311040C061308C00C400D040E800F111080124014C01501170E12
:40008000181119271A0E1D2020112206260829272A0C30C032303307340F3520371838083A203F404003450449FF4A074BFF4C404D204EF04F055008580459045A045C1103
:4000C0005D015F01604061A86240632081808220840C867188DC89038A228B448C108EAC9173930C941096409814992A9B449E039F55A573A704A809AAD0AB08B140B38044
:40010000B4E0B530B61FB70FB808B920BA20BB80BE04BF15C041C102C50BC6C0C70EC819C9FFCAFFCBFFCEF0CF44D00CD401D804D904DA04DB04DC11DD11DF01E6C0EA40B9
:40014000EB020020012002A104040510074209200A600D800E200F081020111013021510184019101A401B0A1C061DA41F2020092208279629202D102F283258351036A0A4
:40018000374238403A013C023E103F2043044520474248204A904F08560457105E185F81820583098F1092A094019D049E059F08A010A204A404A608A702B504C0FFC2EE62
:4001C000C44ECA64CCBECEA9D0B2D6F0E008E6C0EA41EC100202040108080C01120217011A01220426042A013001320234083604370138023E545418580459045B045C1109
:400200005D105F010018020104420624080409200A420E800F0810811324152A18501A4A1B041D401E881F04213122022302258028012A092B06300431A03209370838683C
:400240003A023C083E0840014260430848044A02500151045A085F026540670868106AA070947202732486018708C0F7C25FC47FCA0FCC4FCE0FD00BD20CD682D830E401E4
:40028000E401E008E680E810EA41EC103E10CE2096107C10DE01941045089410D0019410A508251081019610C820E4800D2011021640620170017620812086408A208E019F
:4002C0009002A501AA10B401B510C280C430D840DC80DE20E030EA801280132016407B087F4083089410A508C40EDE0387408A4097809A40AB20B410B508B680E601E808A9
:40030000EA02EC0810021A0203C0000000100000001823001F08200001FF00003FE7001803C000001C3C23C233000C0408440000040000E30C1C00E10280000000382C00B7
:40034000101F0FC000008A200000100036040500010000EC30FFFFFF62A0F0410C000000000002120404040411110001000000000000400200103010001010120000000022
:40038000000000000000000000000000011E1E0000000000030000000300030000000000007F7F0000000000200080202000200009000000020000020000000000000000EC
:4003C00007001801000000000000000000000000000000000000000000000000000000000000000000000000000000000000000000000000000000000000000000000000DD
:4004000000000000000000000000000000000000000000000000000000000000000000000000000000000000000000000000000000000000000000000000000000000000BC
:40044000000000000000000000000000000000000000000000000000000000000000000000000000000000000000000000000000000000000000000000000000000000007C
:40048000000000000000000000000000000000000000000000000000000000000000000000000000000000000000000000000000000000000000000000000000000000003C
:4004C00000000000000000000000000000000000000000000000000000000000000000000000000000000000000000000000000000000000000000000000000000000000FC
:0200000490006A
:0400000000004005B7
:0200000490105A
:04000000BC90ACAF55
:0200000490303A
:0200000042AE0E
:0200000490402A
:4000000000000000000000000000000000000000000000000000000000000000000000000000000000000000000000000000000000000000000000000000000000000000C0
:400040000000000000000000000000000000000000000000000000000000000000000000000000000000000000000000000000000000000000000000000000000000000080
:400080000000000000000000000000000000000000000000000000000000000000000000000000000000000000000000000000000000000000000000000000000000000040
:4000C0000000000000000000000000000000000000000000000000000000000000000000000000000000000000000000000000000000000000000000000000000000000000
:0200000490501A
:0C00000000012E12306900012E1F731742
:00000001FF